:020000040000FA
:10000000F00120204D0100005101000053010000CB
:1000100000000000000000000000000000000000E0
:10002000000000000000000000000000550100007A
:10003000000000000000000057010000590100000E
:100040005B0100005B0100005B0100005B01000040
:100050005B0100005B0100005B0100005B01000030
:100060005B0100005B0100005B0100005B01000020
:100070005B0100005B0100005B010000290700003C
:100080005B0100005B0100005B0100005B01000000
:100090005B0100005B0100005B0100005B010000F0
:1000A0005B0100005B0100005B0100005B010000E0
:1000B0005B0100005B0100005B0100005B010000D0
:1000C00000F002F800F032F80CA030C8083824180C
:1000D0002D18671EA246AB4654465D46AC4201D180
:1000E00000F024F87E460F3EB6460FCC0126334280
:1000F00000D0FB1A3343A246AB461847BC080000A9
:10010000CC08000000000000002300240025002689
:10011000103A01D378C1FBD8520700D330C100D5C3
:100120000B6070471FB51FBD10B510BD00F0DDF8A6
:100130001146FFF7F7FF00F011FC00F0F5F803B4EB
:10014000FFF7F2FF03BC00F0BFFB000006480047CA
:10015000FEE7FEE7FEE7FEE7FEE7FEE703480449A9
:10016000024A044B70470000C1000000F00020204C
:10017000F0012020F0002020002203098B422CD324
:10018000030A8B4211D300239C464EE003460B43E7
:100190003CD4002243088B4231D303098B421CD349
:1001A000030A8B4201D394463FE0C3098B4201D33B
:1001B000CB01C01A524183098B4201D38B01C01A73
:1001C000524143098B4201D34B01C01A52410309EA
:1001D0008B4201D30B01C01A5241C3088B4201D399
:1001E000CB00C01A524183088B4201D38B00C01A46
:1001F000524143088B4201D34B00C01A5241411A6D
:1002000000D201465241104670475DE0CA0F00D04F
:100210004942031000D3404253409C460022030948
:100220008B422DD3030A8B4212D38901FC2212BACE
:10023000030A8B420CD3890192118B4208D38901A6
:1002400092118B4204D389013AD0921100E08909BE
:10025000C3098B4201D3CB01C01A524183098B429F
:1002600001D38B01C01A524143098B4201D34B0188
:10027000C01A524103098B4201D30B01C01A5241EB
:10028000C3088B4201D3CB00C01A524183088B4272
:1002900001D38B00C01A5241D9D243088B4201D3FB
:1002A0004B00C01A5241411A00D201465241104639
:1002B00063465B1001D34042002B00D54942704792
:1002C00063465B1000D3404201B50549002802DCBB
:1002D000491C084000E00846C046C04602BD00BFB9
:1002E000FFFFFF7F704770477047754600F024F8A6
:1002F000AE46050069465346C008C000854618B0A2
:1003000020B5FFF72BFF60BCB64600260027C0C50E
:10031000C0C5C0C5C0C5C0C5C0C5C0C5C0C5403DBD
:10032000490849008D46704710B50446C046C0468E
:100330002046FFF704FF10BD004870470000202052
:1003400082B001900199881E001F00BFFCD200906E
:1003500002B0704784B00390029101920398006844
:100360000090009801998843009000980299019AA2
:10037000114008430399086004B0704784B00390AB
:1003800002910192039800680090009801998843B7
:10039000009000980299019A11400843039908605F
:1003A00004B0704781B0009000990120C202524809
:1003B000885001B07047C04682B00190009100980B
:1003C0000349084301998900084A885002B07047E0
:1003D0008000040082B001900091009880210843C1
:1003E00001998900014A885002B070470480424058
:1003F00081B000900099674A6748885001B0704703
:10040000064908680122904308607047034908685C
:1004100001221202904308607047C04608010B4059
:100420000349086801221203104308607047C04660
:1004300004010B4081B00146684601700078024912
:10044000086001B07047C04608030B4080B582B019
:10045000014601A80170017802480322FFF77AFFE4
:1004600002B080BD00010B40094908680522104315
:100470000860704781B0009005490420086000982A
:10048000401E0449086004490020086001B070471C
:1004900010E000E014E000E018E000E081B000901F
:1004A000009911200202885801239843885001B016
:1004B000704781B0009000991120020288580123F2
:1004C0001843885001B0704782B001900091009BA2
:1004D0000199034A88581843885002B07047C046B3
:1004E0002810000081B0009000990120C20202484B
:1004F000885001B07047C0460100002681B00090CE
:100500000098812149014058C0B201B070470000F5
:1005100080B582B0019000910198FFF7BFFF01986C
:10052000112109024018009A118893781943928882
:100530001143084AFFF722FF01982A494018009A00
:100540009179D3791943127A11437E22FFF716FF6E
:1005500002B080BD1867020081B000900098034986
:1005600040580121084001B07047C0460811000002
:1005700081B00090009802494058C0B201B0704765
:100580002411000081B000900099024A024888506E
:1005900001B0704704080000030000B180B584B0CA
:1005A00003900291019203980B49401802990B4A5B
:1005B000FFF7D0FE03980A49401801993F22FFF740
:1005C000C9FE0399074A8818895801221140FFF78C
:1005D000C1FE04B080BDC04610110000FFFF000046
:1005E000141100000411000082B0019000910098E5
:1005F00000780199044A88500098407801990122B6
:100600001203885002B070470810000080B582B015
:1006100001900091019811210902401800990322CC
:10062000D203FFF797FE02B080BD82B0019068460A
:1006300001700078019989225201885002B07047F8
:1006400080B582B0142002210191FFF7C3FE019909
:100650001520FFF7B1FE02B080BD80B582B000204A
:100660000190FFF7E7FE0198FFF7F0FEFFF7C8FEE5
:10067000FFF7CCFEFFF7D4FE02B080BD80B520208E
:10068000FFF7F8FEFFF7F0FE80BD000080B582B0F6
:100690000D4976480190FFF7A7FF01980B49FFF736
:1006A00037FF01980021FFF7B1FF01981A210322BB
:1006B000FFF774FF019801218902FFF705FF0198F8
:1006C000FFF7F7FE02B080BDAC090000AE090000E4
:1006D00080B500F009F8FFF7B3FFFFF7BEFFFFF7A3
:1006E000D5FFFFF7CBFF80BD80B584B00C480190EB
:1006F000FFF77EFE0B480290FFF77AFE5B480390FF
:10070000FFF740FF0198FFF74DFE0298FFF74AFE02
:100710000398FFF7E7FE1020FFF712FE04B080BD3C
:1007200000000A4000200A4080B582B001A90020E4
:1007300008704E48FFF7E2FE0B281AD1FFE74B483E
:10074000FFF716FF01A908700B4800887E2808DC17
:10075000FFE70198084B1A88511C198007498854F3
:1007600003E0054900200880FFE7054901200870E3
:1007700000E0FFE702B080BDEA00202068002020F2
:10078000E800202080B58AB009AA0492107008A859
:100790000290017009994031117000786421009134
:1007A000FFF7EAFC009902460298302303931A43AC
:1007B0001A4B05931A700078FFF7DEFC08460A21F1
:1007C0000191FFF7D9FC0199024602983032144B8F
:1007D00006931A700078FFF7CFFC03980143114885
:1007E00007900170242000F02DF80498007800F0A4
:1007F00029F80598007800F025F80698007800F0B0
:1008000021F80798007800F01DF8232000F01AF86E
:10081000322000F05DF80AB080BDC04660002020A4
:10082000610020206200202080B582B0FFF750FFD9
:100830000F20019000F01CF8019800F02FF802B092
:1008400080BD000080B582B001A90870FFE70748AD
:10085000FFF782FE002801D0FFE7F8E701A8017842
:100860000248FFF7E2FE02B080BDC04600801040A3
:1008700081B0014668460170007840B2002809D472
:10088000FFE7684601781F200140012088400249A7
:100890000860FFE701B0704780E200E081B00146E8
:1008A00068460170007840B2002809D4FFE7684626
:1008B00001781F2001400120884002490860FFE7BD
:1008C00001B0704700E100E081B0009001B07047D6
:1008D00080B582B0019001997D20C000484300F0AE
:1008E00003F802B080BD000085B00490262000907F
:1008F000049840010390174800680290FFE71548EC
:10090000006801900198029988421FD0FFE7019882
:100910000299884207D2FFE702980199411A00988C
:100920004018009009E00C4800680199401A0299AB
:100930004118009840180090FFE701980290009835
:100940000399884201D3FFE701E0FFE7D7E705B04D
:100950007047C04618E000E014E000E080B582B0C7
:1009600000200190FFF760FFFFE70F4900200860BB
:10097000FFE70D480068B32815DCFFE70A48009040
:1009800001780120FFF7FEFE00980068B52804DB1F
:10099000FFE7054900200860FFE7FFE70249086814
:1009A000401D0860E5E7E0E7640020200400000047
:1009B0001800000000300000C809000000002020DE
:0809C000F00100000801000035
:04000005000000C136
:00000001FF
