:2000000000002120490500005B0100005B0100000000000000000000000000000000000099
:200020000000000000000000000000005B01000000000000000000005B0100005B010000AC
:200040005B0100005B0100005B0100005B0100005B0100005B0100005B0100005B010000C0
:200060005B0100005B0100005B0100005B0100005B0100005B0100005B01000021030000D8
:200080005B0100005B0100005B0100005B0100005B0100005B0100005B0100005B01000080
:2000A0005B0100005B0100005B0100005B0100005B0100005B0100005B0100005B01000060
:2000C000002A49D084468B071CD1830722D1102A08D370B4103A78C978C0103AFBD270BCD8
:2000E000103238D0042A2CD3082A05D30C2A01D308C908C008C908C008C908C092072AD017
:20010000920F22E00B780370491C401C521E22D08B07F7D1C30714D18307D8D0121F12D3D2
:2001200008C903801B0C4380001D121FF8D20AE008C903701B0A43701B0A83701B0AC370F3
:20014000001D121FF4D2121D05D00B780370491C401C521EF9D160467047FEE700F09AF9D1
:200160001F4A204E204D0020106003E0481D1060AF29F8DAC1B229224A43120B1346303325
:20018000337064246243821AD2B2CD235A43D20A30273A432A704B43D90A0A224A43801AD4
:2001A0003843124F3870242000F082F9412000F07FF9307800F07CF9287800F079F9387884
:2001C00000F076F9232000F073F9204600F0CAF8034A1168B529C9DB00211160C6E7C0467C
:2001E0008400202088002020890020208A002020F8B5451C00780023082B32D02F78C20792
:200200000CD16A780F241440E41C122C0BD102242E57F4B2002E08D4EE1C0EE06D1C4A1C3C
:200220000F7011461AE0AE1C08E02E1DED7800957F252C40009DED012C1912343D01120978
:200240005219094DAA420ED0D243002C05D08D5C4F1C0D70641E3946F7E7354640085B1C13
:20026000CAE72846C5E7F8BDFF0F000010B51449144C204600F04CF91349204600F02CF8FD
:20028000124801680322D303994301600169104B0B401A330361416911433C2291434161D0
:2002A000416801221140436893435918416009490B6894021C430C6001681143016010BD7D
:2002C000620500000080104058050000009110400000FFFF2890104070B511221302C2185C
:2002E000C4580125AC43C4500C888D7825438C882C43C558084E2E40084D2540AC19C450C1
:200300008879CB790343087A184351687E23994318400818506070BDE798FDFF18670000F0
:200320000B480068C0B20B2810D10A4800680A490A887E2A05D80A88531C0B8007498854A0
:2003400001E0002008800648012101707047C0462090104024911040800020200000202071
:2003600082002020B0B50E497D22120242430B68262006E00D1F2D68E41A641920189042E2
:200380000DD21C460B68A34205D10B68A34202D10B68A342F6D09C42ECD9E41AEEE7B0BDC2
:2003A00018E000E00C48002101600C48014608390A680323DB4313400B60016801229143DF
:2003C00001600168130299430160001F016812030A4302607047C04608030B4008010B404E
:2003E00070B50A480A4C84420CD00A4D0A4EB54208D02A686968501C12789200A258904754
:200400000835F4E700BF00BF70BDC0467405000068050000840500009405000080B5074887
:2004200007494160074A5160074B59600749016011601960102000F07DF880BD00080A40FF
:20044000030000B100280A400088104001000026084880F3088800BF00BF00F077F800281F
:2004600001D0FFF7BDFF0020FFF778FE012000F06FF8C046000021200548042101601F219B
:20048000416000218160016805220A430260704710E000E080B500F019F80120C00302498E
:2004A00008600249086080BD80E200E000E100E005490A68D20705D00A68D20702D00A68E4
:2004C000D207F6D1886170470891104080B5FFF7A5FF00F013F8FFF765FFFFF7C7FEFFF71E
:2004E000CBFF80BD03228058002805D0401E4A1C00230B701146F7E77047000002488221C0
:200500000160024941607047548042408200040010B50122120383180C789C604978815051
:2005200010BD80B50B4603214258C11D184600F007F880BD811E091F00BFFCD27047000037
:1805400080B5FFF7BDFD80BD82E770470120704700BFFEE700000000E5
:100558000000180000000030000004000000000047
:20056800F101000023050000E50400000200000007000000000100000F70FFF0740500007F
:10058800840020207C0500000000202000000000DE
:00000001FF
