:020000040800F2
:100000008008002049010008A9110008ED0D000832
:10001000A5110008C90B0008572A000800000000BD
:10002000000000000000000000000000851700082C
:10003000CD0B000800000000B5120008E51D000807
:100040006301000863010008630100086301000800
:1000500063010008630100086301000863010008F0
:1000600063010008630100086301000863010008E0
:1000700063010008630100086301000863010008D0
:1000800063010008630100086301000863010008C0
:1000900063010008630100086301000863010008B0
:1000A00063010008A120000863010008491E000840
:1000B000012100082D2100086301000863010008E8
:1000C0006301000863010008630100086301000880
:1000D00063010008ED26000863010008C927000835
:1000E0006301000863010008630100086301000860
:1000F0006301000863010008630100086301000850
:10010000630100086301000863010008630100083F
:100110006301000815260008630100086301000858
:10012000630100086301000863010008630100081F
:10013000DFF810D000F050FB00480047813800087D
:10014000AFF300808008002006488047064800473B
:10015000FEE7FEE7FEE7FEE7FEE7FEE7FEE7FEE777
:10016000FEE7FEE7E91D000831010008D2B201E018
:1001700000F8012B491EFBD270470022F6E710B5AC
:1001800013460A4604461946FFF7F0FF204610BD05
:1001900080EA010210B502F00043400022D04A007C
:1001A0001FD0010E01EB1261C0F35600C2F35602DC
:1001B00040F4000042F40002A0FB022000047F395A
:1001C000140400D0401C50EA124001D44000491EE3
:1001D000C2B20C0604EBD010401C4008802A02D0AA
:1001E00003E0002010BD20F00100002900DA00200B
:1001F000184310BD2DE9FE4F81EA030404F00044CA
:1002000021F0004100944FF0000B23F0004350EA2E
:1002100001045ED052EA03045BD0C3F30A54C1F375
:100220000A552C44A4F2F3340194A0FB0254C1F308
:10023000130141F48011C3F3130343F4801301FB52
:10024000024400FB034E840A970A44EA815447EAB9
:100250008357A4FB076802958D0A05FB07854FEAC3
:10026000932C04FB0C542705029D4FEA065847EADD
:100270001637B5EB08056EEB070C870E920E47EAB2
:10028000811742EA8312A7FB0201B6EB0B0164EB74
:1002900000042B0D43EA0C335E1844EB1C50DA4685
:1002A0005146E7FB0201C5F313044FEA0B3343EA5F
:1002B00014534FEA0432019C43EA0603A4F10C04F0
:1002C0000294009CCDE900B400F060F903B0BDE8F1
:1002D000F08F00200146F9E72DE9F04D81EA030493
:1002E00004F0004B21F0004514464FF0000A23F0C3
:1002F000004150EA050220D054EA01021DD0C5F3A6
:100300000A570246C5F31303C1F31300C1F30A569B
:1003100040F4801543F48013A7EB0608101BD64663
:1003200008F2FD3873EB050002D308F1010801E083
:1003300092185B41B8F1000F03DA00200146BDE8D6
:10034000F08D00204FF48011064684460EE0171B06
:1003500073EB050705D3121B63EB050306434CEA59
:10036000010C49084FEA300092185B4150EA01073E
:10037000EDD152EA030012D082EA040083EA0501BB
:10038000084305D0101BAB4106D20122002306E032
:1003900000224FF0004302E06FF0010253101AEB0D
:1003A00006004CEB085110EB0A0041EB0B01BDE8D5
:1003B000F04D00F0DCB896230022114600F0A9B8F9
:1003C0000EB5C10F80EAE0700844CA07002140F270
:1003D00033438DE80E000A460B4600F0D7F803B011
:1003E00000BD00F0004220F00040C10DC0F3160037
:1003F00040F400007F2901DA00207047962903DCD1
:10040000C1F19601C84001E096398840002AF4D035
:100410004042704700F0004230F000400AD0C10D69
:1004200001F56071C0F3160042EA0151C2084007AD
:100430001143704700200146704701F0004330B47B
:1004400021F0004150EA010206D00A0DA2F56072C7
:10045000C1F31301002A02DC30BC00207047440FB6
:1004600044EAC104C100E01830BC00EBC25000F007
:1004700047B830B50B46014600202022012409E090
:1004800021FA02F59D4205D303FA02F5491B04FA4D
:1004900002F52844151EA2F10102F1DC30BD2DE960
:1004A000F05F0546002092469B46884606468146F8
:1004B00040241BE0284641464746224600F0ADF95D
:1004C00053465A46C01A914110D311461846224647
:1004D00000F094F92D1A67EB01084F4622460120DF
:1004E000002100F08BF917EB00094E41201EA4F10A
:1004F0000104DFDC484631462A464346BDE8F09F0A
:100500000029A8BF7047401C490008BF20F0010027
:10051000704710B4B0FA80FC00FA0CF050EA010405
:1005200004BF10BC704749B1CCF1200421FA04F497
:1005300011FA0CF118BF012121430843A3EB0C0170
:10054000CB1D4FEA00614FEA102042BF002010BCD3
:10055000704700EBC35010440029A4BF10BC704783
:10056000401C490008BF20F0010010BC704710B5C6
:10057000141E73F1000408DA401C41F100019218C6
:100580005B411A4301D120F0010010BD2DE9F04D6F
:1005900092469B4611B1B1FA81F202E0B0FA80F2C4
:1005A0002032904600F02AF904460F4640EA0A003D
:1005B00041EA0B0153465A46084313D0114653EA09
:1005C000010019D0C8F14002504600F026F9054656
:1005D0000E4650465946424600F010F9084305D0F1
:1005E000012004E020463946BDE8F08D0020054397
:1005F00046EAE0762C4337430A986305E40AA0EB09
:1006000008000022FD0A44EA47540A3002D50020BF
:100610000146E9E7010510196941DDE908450019BE
:100620006941BDE8F04DA2E72DE9FE4F804681EA21
:100630000300C00F0C46009021F0004123F000455C
:10064000B8EB0200A94105D24046214690461C461F
:100650000B46024623F00040104347D0270DC7F356
:100660000A00C3F30A510290401A019040286BDA45
:10067000C3F3130040F4801B0098924620B100237E
:10068000D2EB030A63EB0B0B01985946C0F1400211
:10069000504600F0B3F806460D4650465946019ABA
:1006A00000F0CBF810EB08006141002487EA1152FA
:1006B00084EAE7731A4340D0009A62B3019A012A90
:1006C0004FEA075215DC001B61EB02014FF00042BC
:1006D00002EA0752CDE90042001C41F58011324682
:1006E0002B46FFF753FF03B0BDE8F08F404621468D
:1006F000F9E7001B61EB0201001C41F580130018B3
:100700005B412018A2F5001747EB030140EAD570C2
:10071000B6196D4111E06D084FEA360645EAC0751D
:100720004FEA0752001B61EB0201001C41F58011EA
:1007300049084FEA30000019514132462B4603B0B8
:10074000BDE8F04FFFF713BF0098012240000023DF
:10075000D0EB020263EBE073009821464FEAE074AD
:10076000B8EB000061EB0401E9E783F000435BE7CD
:1007700081F0004158E7C1F30A52C1F3130140F27E
:10078000FF3341F480119A4202DA0020014670479B
:1007900040F233439A42A2F2334202DC524200F06A
:1007A0003CB800F02BB8000030B5041E71F1000415
:1007B00004DB4FF00044404264EB0101141E73F16E
:1007C000000405DB1C464FF00043524263EB040378
:1007D000994208BF904230BD064C074D06E0E068E4
:1007E00040F0010394E8070098471034AC42F6D378
:1007F000FFF7A2FC3C6200085C620008202A04DBD0
:10080000203A00FA02F1002070479140C2F1200323
:1008100020FA03F3194390407047202A04DB203A62
:1008200021FA02F00021704721FA02F3D040C2F110
:1008300020029140084319467047202A06DBCB1757
:10084000203A41FA02F043EAE07306E041FA02F38B
:10085000D040C2F12002914008431946704721B1AF
:10086000826842F00102826003E0826822F00102A5
:100870008260704710B504461248844208D10121B5
:10088000401500F055FD0021601500F051FD17E006
:100890000D48844208D10121001500F049FD0021D6
:1008A000201500F045FD0BE00848844208D10121E5
:1008B000C80300F03DFD00214FF4004000F038FD7A
:1008C00010BD00000024014000280140003C014010
:1008D000014600208A6802F004020AB1012000E00B
:1008E000002070470146C86C80B270470246002065
:1008F00013680B400BB1012000E000207047014657
:1009000000208A6802F008020AB1012000E00020FD
:100910007047000030B502460020002350680F4C9D
:1009200020400D790C6844EA05242043506090680B
:100930000B4C2040D1E902542C434D7944EA450444
:1009400020439060D06A20F470000C7C641EE4B2F6
:10095000234340EA0350D06230BD0000FFFEF0FFA9
:10096000FDF7F1FFF0B504460D4600200021092DEA
:1009700011DDE068A5F10A0606EB4607072606FA30
:1009800007F18843A5F10A0606EB460603FA06F1CD
:100990000843E0600CE0206905EB4507072606FAEE
:1009A00007F1884305EB450603FA06F10843206189
:1009B000072A0FDA606B561E06EB86071F2606FA1B
:1009C00007F18843561E06EB860605FA06F1084332
:1009D000606322E00D2A0FDA206BD61F06EB860734
:1009E0001F2606FA07F18843D61F06EB860605FA8E
:1009F00006F10843206310E0E06AA2F10D0606EB61
:100A000086071F2606FA07F18843A2F10D0606EBBA
:100A1000860605FA06F10843E062F0BD816841F000
:100A200008018160704721B1826842F4A0028260AF
:100A300003E0826822F4A00282607047816841F07E
:100A40000401816070472DE9F04107460C460025FE
:100A5000002605E0384600F0AFF90544701CC6B228
:100A6000A642F7DBB5FBF4F080B2BDE8F0810000F0
:100A70002DE9F04100F014F804462046FFF7CAFCC7
:100A80000546054A054BFFF7B5FB0746FFF7D5FCC2
:100A900004462046BDE8F08172F90FE9B7AF074080
:100AA00070B505210A20FFF7CEFF05462846FFF75F
:100AB00082FC06460249FFF76BFB0446204670BDE8
:100AC0003333533A00B587B001214FF4047000F07E
:100AD0001FFC4FF4004000F0EFFB0120ADF80400D4
:100AE00000208DF8070001A9174800F083F8174887
:100AF000FFF7C0FE002002908DF80C008DF80D006D
:100B00004FF4602004900020059001208DF818001B
:100B100002A90E48FFF7FEFE01210C48FFF79FFED9
:100B20000A48FFF77BFF00BF0848FFF7E8FE0028F0
:100B3000FAD10648FFF782FF00BF0448FFF7C8FE5E
:100B40000028FAD107B000BD001001400024014088
:100B5000014908607047000000860D4270B51348D7
:100B6000007800B3FFF784FF05461149FFF710FB3B
:100B70000446FFF736FC0F4908600846006840F25B
:100B80008A2188420CDA0C480068401C0A49086037
:100B900008460068142806DD00200449087002E0B9
:100BA0000020054908600148007870BD5000002011
:100BB0000000C8425400002058000020014800688E
:100BC000704700005400002000BFFEE7704701B5E9
:100BD00000200AE0002001E0411CC8B20A28FBDB2B
:100BE0009DF80010491EC9B200919DF8001000291F
:100BF000F0D108BD2DE9F041024600250026002075
:100C000000230024002791F803C00CF00F0591F891
:100C100003C00CF0100CBCF1000F03D091F802C01F
:100C20004CEA050591F800C0BCF1000F31D0146802
:100C300000202BE04FF0010C0CFA00F3B1F800C0DB
:100C40000CEA03069E4220D183004FF00F0C0CFAF1
:100C500003F7BC4305FA03FC4CEA040491F803C013
:100C6000BCF1280F06D14FF0010C0CFA00FCC2F8C1
:100C700014C00AE091F803C0BCF1480F05D14FF051
:100C8000010C0CFA00FCC2F810C0401C0828D1D39B
:100C90001460B1F800C0BCF1FF0F34DD54680020CF
:100CA0002EE000F1080C4FF0010808FA0CF3B1F83F
:100CB00000C00CEA03069E4221D183004FF00F0CC6
:100CC0000CFA03F7BC4305FA03FC4CEA040491F860
:100CD00003C0BCF1280F05D100F1080C08FA0CF88C
:100CE000C2F8148091F803C0BCF1480F07D100F19D
:100CF000080C4FF0010808FA0CF8C2F81080401CEC
:100D00000828CED35460BDE8F0810000F0B50A4653
:100D1000002300240021002500F00046B6F1004F1A
:100D200002D11D4EF16901E01B4E7168C0F303450D
:100D300083B200F44016B6F5401F08D121F070616F
:100D4000154E766826F07066134F7E6012E000F450
:100D50008016B6F5801F06D1032606FA05F4A143D6
:100D600041F0706106E0460D360103FA06F6B14324
:100D700041F0706122B1460D360103FA06F63143A7
:100D800000F00046B6F1004F02D1034EF16101E0E0
:100D9000014E7160F0BD00000000014002460020DD
:100DA00093680B400BB1012000E0002070474161C7
:100DB000704701617047000010B504460723012207
:100DC00021460948FFF7CEFD01210748FFF72BFE1A
:100DD00000BF02210448FFF789FD0028F9D002482E
:100DE000FFF780FD10BD00000024014000BFFEE7BA
:100DF0000848806940F0100006498861064800688C
:100E000020F47F40044908600846006840F44C50D4
:100E100008607047001002400010014070B50446A1
:100E20001448006820F470401249086008460068C1
:100E300040F44050086000200F490860002516E08B
:100E4000E0090D49091D08606006040E0120FFF746
:100E5000BEFE01200949C1F88801FFF7B8FE002055
:100E6000054908600120FFF7B2FE681CC5B2082DD5
:100E7000E6DB70BD001001408801224200002242E2
:100E800010B51648006820F4704014490860084600
:100E9000006840F440500860012011490860114882
:100EA000D0F80C0108B9002010BD01200C49091F21
:100EB0000860FFF78CFE00200A49C1F88C01084841
:100EC0008038006808B10020EEE70220FFF77FFEBF
:100ED00000200349091F08600120E5E700100140D8
:100EE0008C0122420000224210B51048006820F414
:100EF00070400E4908600846006840F440500860A1
:100F000000200B4908600B49C1F88C010220FFF753
:100F10005EFE012006490860FFF759FE01200549E1
:100F2000C1F88C010220FFF752FE10BD00100140F5
:100F3000880122420000224210B5002415480068B2
:100F400020F47040134908600846006840F40040EF
:100F50000860012010490860FFF739FE01200F49A1
:100F6000C1F88801FFF733FE0AE0601CC4B2322CDE
:100F700003DDFFF7B9FF002010BD0120FFF727FEBA
:100F80000548803800680028EFD10349091F086030
:100F90000120F1E7001001408C01224200002242B2
:100FA0002DE9F04107460C460025002605E03846AD
:100FB00000F096F80544701CC6B2A642F7DBB5FBFC
:100FC000F4F080B2BDE8F08110B500F003F80446FB
:100FD000204610BD70B501210B20FFF7E1FF05464B
:100FE0002846FFF7E8F906460249FFF7D1F804461C
:100FF000204670BD0000043C00B587B001214FF4CD
:10100000047000F085F94FF4004000F055F902201B
:10101000ADF8040000208DF8070001A91748FFF77C
:10102000E9FD1748FFF726FC002002908DF80C0020
:101030008DF80D004FF460200490002005900120F1
:101040008DF8180002A90E48FFF764FC01210C4836
:10105000FFF705FC0A48FFF7E1FC00BF0848FFF76F
:101060004EFC0028FAD10648FFF7E8FC00BF044810
:10107000FFF72EFC0028FAD107B000BD0010014098
:101080000024014070B5FFF79FFF05460E49FFF7AA
:101090007FF80446FFF7A5F90C4908600846006888
:1010A000B0F5C86F0ADD0A480068401C08490860AE
:1010B00008460068142804DD012070BD00200449A2
:1010C00008600020F9E700000000C8427C00002012
:1010D0008000002001480068704700007C0000206C
:1010E00010B504460723012221460948FFF73AFCC0
:1010F00001210748FFF797FC00BF02210448FFF7D2
:10110000F5FB0028F9D00248FFF7ECFB10BD00000A
:101110000024014010B5044600F022F801280BD14C
:10112000601C0D490988B1EB400F0ADA0A480088B3
:10113000401C0949088004E000200749088007494D
:10114000088005480088022803D10120034908804F
:1011500010BD0020FCE70000880000208600002071
:1011600010B54FF480510448FFF718FE08B901206C
:1011700010BD0020FCE70000000C014008B5012173
:10118000082000F0C5F84FF48050ADF8000048206A
:101190008DF8030069460248FFF72CFD08BD0000EA
:1011A000000C014000BFFEE77047000070B5002151
:1011B00000230F22C47804B3154C246804F4E064BF
:1011C000C4F5E064210AC1F10403CA40447804FA7A
:1011D00003F184781440214309010E4C0678A1558F
:1011E000047804F01F050124AC4005786D11AD00B2
:1011F00005F1E025C5F8004109E0047804F01F0579
:101200000124AC40044D0678761145F8264070BDA7
:101210000CED00E000E400E080E100E00249014361
:10122000024A1160704700000000FA050CED00E072
:1012300010B5002000F060F910BDF8B507460C4667
:1012400015461E46002C0CDD032C0ADC601E00EB4C
:1012500080004006020E2B4600213846009600F022
:1012600001F8F8BD2DE9F04107460C4615461E462B
:10127000DDF818800EB1FFF7DBFF2946204600F0AD
:101280004BF901220549384600F042FAB8F1000F47
:1012900001D000F005F8BDE8F081000064000020F6
:1012A00010B500F04BFA10BD01490862704700000C
:1012B00000000E427047000001460020034A5068BB
:1012C00020F4404008435060704700000010024086
:1012D00029B1064AD2690243044BDA6104E0034AA9
:1012E000D2698243014BDA6170470000001002406E
:1012F00029B1064A12690243044B1A6104E0034A09
:1013000012698243014B1A617047000000100240CD
:1013100029B1064A92690243044B9A6104E0034AE8
:1013200092698243014B9A617047000000100240AD
:1013300029B1064AD2680243044BDA6004E0034A4A
:10134000D2688243014BDA6070470000001002400F
:1013500030B500210022002400232D4D6D6805F0DA
:101360000C0121B1042905D0082923D105E0294D1C
:10137000056022E0274D05601FE0254D6D6805F4EE
:101380007012234D6D6805F48034022505EB9242FE
:101390001CB9214D554305600BE01D4D6D6805F4EA
:1013A00000351DB11C4D5543056002E0194D5543F4
:1013B000056002E0174D056000BF00BF144D6D6869
:1013C00005F0F0010909154D6B5C0568DD404560CD
:1013D0000F4D6D6805F4E061090A104D6B5C4568BE
:1013E000DD4085600A4D6D6805F46051C90A0B4DFA
:1013F0006B5C4568DD40C560054D6D6805F4404196
:10140000890B074D6B5CC568B5FBF3F5056130BD15
:101410000010024000127A0000093D001C0000206C
:101420002C00002000210B4A11700A4A203A82F851
:101430002010012802D0042808D103E00121054A28
:10144000117004E00521034A117000E000BF00BFE5
:101450007047000020100240F0B503461446802B70
:1014600001DA202900DBF0BD2148007920B10CB958
:10147000012000E000200446012C1CD1CD1701EB17
:101480005575ED1003EBC5151A4E755D0A46CE175E
:1014900001EB5676F610A1EBC6070126BE40354398
:1014A000EEB20846CD1701EB5575ED1003EBC515EF
:1014B000104F7E551AE0CD1701EB5575ED1003EB7B
:1014C000C5150C4E755D0A46CE1701EB5676F61023
:1014D000A1EBC6070126BE40B5430846CE1701EB77
:1014E0005676F61003EBC616024FBD5500BFBAE79D
:1014F0005C0000205C02002010B504460CB90020FE
:1015000000E0FF2002464FF400710248FEF72EFE75
:1015100010BD00005C020020014A1080518070471D
:101520005C00002010B540F6C41400E0641E002CDE
:10153000FCD1AE2200213C2002F0C6F9A6220021F7
:101540003C2002F0C1F9AE2200213C2002F0BCF99F
:10155000D52200213C2002F0B7F9802200213C2056
:1015600002F0B2F9A82200213C2002F0ADF91F22BE
:1015700000213C2002F0A8F9D32200213C2002F0F7
:10158000A3F9002211463C2002F09EF940220021DE
:101590003C2002F099F98D2200213C2002F094F9C0
:1015A000142200213C2002F08FF9202200213C204F
:1015B00002F08AF9022200213C2002F085F9A122E2
:1015C00000213C2002F080F9C82200213C2002F0DA
:1015D0007BF9DA2200213C2002F076F90222002178
:1015E0003C2002F071F9812200213C2002F06CF9CC
:1015F000CF2200213C2002F067F9D92200213C20B3
:1016000002F062F9F12200213C2002F05DF9DB22B8
:1016100000213C2002F058F9402200213C2002F039
:1016200053F92E2200213C2002F04EF9A422002181
:101630003C2002F049F9A62200213C2002F044F9A6
:10164000AF2200213C2002F03FF90020FFF754FFB9
:1016500000F074F800200349088048800120487198
:1016600010BD00005C0000202DE9F04307460C4649
:1016700090462648008821780844802805DA2348C7
:10168000408861780844202802DB0020BDE8F08310
:10169000002530E0A7F12000617800FB015061686F
:1016A00031F81090002622E009FA06F000F400401C
:1016B00058B1164A52882A4491B2144A12883244C8
:1016C00090B24246FFF7C8FE10E0B8F1000F01D11A
:1016D000012300E000231A460C4B5B882B4499B28F
:1016E0000A4B1B88334498B2FFF7B6FE761C20786D
:1016F000B042D9D86D1C6078A842CBD80348008886
:1017000021780844014908803846BFE75C00002082
:1017100070B504460D4616460AE020783246294642
:10172000FFF7A2FF2178884201D0207870BD641CA9
:1017300020780028F1D12078F8E7000010B50024C7
:101740001BE004F1B000C2B200213C2002F0BCF862
:10175000002211463C2002F0B7F8102200213C2064
:1017600002F0B2F80648802101FB04020B4640213A
:101770003C2002F0B3F8601CC4B2082CE1DB10BDC1
:101780005C0200207047000008B50120FFF78CFDC7
:101790000020FFF747FE0020FFF7DAF90020FFF7EF
:1017A00083FD01210420FFF7B3FD0120ADF8000007
:1017B00010208DF8030002208DF802006946CA4807
:1017C000FFF718FA01210420FFF7A2FD0220ADF86F
:1017D000000010208DF8030002208DF802006946F9
:1017E000C148FFF707FA01210420FFF791FD04200B
:1017F000ADF8000010208DF8030002208DF80200E3
:101800006946B948FFF7F6F901210420FFF780FD8A
:101810000820ADF8000010208DF8030003208DF89B
:1018200002006946B048FFF7E5F901210820FFF7FB
:101830006FFD1020ADF800008DF8030003208DF837
:1018400002006946A948FFF7D5F901210820FFF7F2
:101850005FFD2020ADF8000010208DF8030003206C
:101860008DF802006946A148FFF7C4F9012108205C
:10187000FFF74EFD0120ADF8000010208DF80300A9
:1018800003208DF8020069469848FFF7B3F901215B
:101890000820FFF73DFD0220ADF8000010208DF874
:1018A000030003208DF8020069469048FFF7A2F973
:1018B00001210420FFF72CFD4FF40040ADF800009B
:1018C00010208DF8030003208DF802006946864839
:1018D000FFF790F901210820FFF71AFD0820ADF865
:1018E000000010208DF8030003208DF802006946E7
:1018F0007E48FFF77FF901210820FFF709FD4FF42B
:101900008060ADF8000010208DF8030003208DF8F2
:10191000020069467548FFF76DF901210820FFF7BD
:10192000F7FC4FF40060ADF8000010208DF80300C4
:1019300003208DF8020069466C48FFF75BF901212E
:101940000820FFF7E5FC4020ADF8000010208DF8DE
:10195000030003208DF8020069466448FFF74AF946
:1019600001210820FFF7D4FC8020ADF800001020F2
:101970008DF8030003208DF8020069465B48FFF7ED
:1019800039F901210820FFF7C3FC4FF48070ADF84E
:10199000000010208DF8030003208DF80200694636
:1019A0005248FFF727F901210820FFF7B1FC4FF457
:1019B0000070ADF8000010208DF8030003208DF8B2
:1019C000020069464948FFF715F901211020FFF789
:1019D0009FFC4020ADF8000010208DF8030003208C
:1019E0008DF8020069464248FFF704F901211020F2
:1019F000FFF78EFC8020ADF8000010208DF803006A
:101A000003208DF8020069463948FFF7F3F80121F9
:101A10001020FFF77DFC4FF48070ADF8000010201F
:101A20008DF8030003208DF8020069463048FFF767
:101A3000E1F801211020FFF76BFC4FF40070ADF8C6
:101A4000000010208DF8030003208DF80200694685
:101A50002748FFF7CFF801210420FFF759FC4FF486
:101A60008070ADF8000010208DF8030003208DF881
:101A7000020069461C48FFF7BDF801210820FFF766
:101A800047FC4FF48040ADF8000010208DF80300B3
:101A900003208DF8020069461448FFF7ABF80121D6
:101AA0000820FFF735FC4FF40040ADF8000010208F
:101AB0008DF8030003208DF8020069460B48FFF7FC
:101AC00099F801210420FFF723FC4FF40060ADF8E2
:101AD000000010208DF8030003208DF802006946F5
:101AE0000148FFF787F808BD00080140000C0140DD
:101AF0000010014000220E4B1A60002014E000216B
:101B00000EE05A220B4B03EB401343F8212040F226
:101B1000D252094B03EB001323F811204A1CD1B217
:101B20000829EEDB421CD0B20328E8DB7047000036
:101B3000400000204C010020AC01002070B5244D75
:101B40002D686D1C224E356005B970BD0025204EF4
:101B50003560002238E0002332E01E4D05EB4215CF
:101B600055F82340002C00DA0024B42C00DDB42406
:101B700004EB440505EBC40505F5FA75A9B2164D4D
:101B800005EB021535F81300884208DA0D1A022D0C
:101B900001D9022500E00D1A0544A8B209E08842E7
:101BA00007DD451A022D01D9022500E0451A451B23
:101BB000A8B2094D05EB021525F813005D1CEBB228
:101BC000082BCADB551CEAB2032AC4DB00BFBCE702
:101BD000400000204C010020AC0100202DE9F04F16
:101BE000DFF8DC904FF0000B89F801B089F800B005
:101BF000DFF8D0A0DFF8D0C05B460AEB8300B0F876
:101C00000280B8F1000F4CD03049D80801EB001029
:101C100003F0070130F811400020494605E03CF888
:101C20003020A24204D2401CC0B20A789042F6D3BF
:101C30000A78904203D03CF83020A24227D00A789C
:101C400011E00CEBC20737F8081C2CF83210002109
:101C500007EB410535F8066C6E80491CC9B20329B3
:101C6000F6D3521ED2B28242EBD82CF8304000217B
:101C70005A460CEBC00404EB41046280491CC9B213
:101C80000329F6D399F80020521C89F800200CEBA8
:101C9000C0011AF8230001EB4000418841EA080125
:101CA00041805B1CDBB2182BA7D309480088B0F534
:101CB0007A7F02D2012189F80110BDE8F08F00007F
:101CC00034000020C83900088C000020AC0100203E
:101CD000242C014010B500F001F810BD0CB5002017
:101CE000019000903348006840F48030314908602A
:101CF00000BF3048006800F4003000900198401C9C
:101D00000190009818B90198B0F5A06FF1D1294859
:101D1000006800F4003010B10120009001E00020C4
:101D200000900098012843D12348006840F010003B
:101D3000214908600846006820F003000860084652
:101D4000006840F0020008601A484068194948607D
:101D50000846406848600846406840F48060486033
:101D60000846406820F47C1048600846406840F40B
:101D7000E81048600846006840F08070086000BFC6
:101D80000C48006800F000700028F9D0094840684D
:101D900020F00300074948600846406840F0020010
:101DA000486000BF0348406800F00C000828F9D1E3
:101DB0000CBD00000010024000200240042808D1A1
:101DC0004FF0E021096941F004014FF0E022116178
:101DD00007E04FF0E021096921F004014FF0E02213
:101DE000116170477047000010B51348006840F05B
:101DF00001001149086008464068104908400E4932
:101E00004860084600680E4908400B4908600846CB
:101E1000006820F4802008600846406820F4FE0036
:101E200048604FF41F008860FFF754FF4FF00060D8
:101E30000449086010BD0000001002400000FFF8D7
:101E4000FFFFF6FE08ED00E02DE9F04F3E48018867
:101E5000DFF8F8B0DFF8F880DFF8F8C0DFF8F8E076
:101E60003E4D4907A0F104044FF6FD7620D5B11E82
:101E700001806978E1B12978D1B1002169702972B6
:101E8000B8F800106981A91C354B0A881A60354BD7
:101E90004A881A608A88CBF81020BCF800106A893A
:101EA0001144AEF800100680218841F00201218023
:101EB0002549091F0988890744D50188890741D523
:101EC000B2468146068031E0002001466C890A4610
:101ED0002E7A0CEBC6035F883A439F88DB88394330
:101EE0001843761CF3B22B722E78B34206D2B8F8A0
:101EF00000603CF833702744BE42E9D2184E361DCC
:101F00003260184A121D1160CBF81400287A297823
:101F100088420FD03CF83300204480B2AEF8000075
:101F2000A9F800A0B8F8001081420BD3287A2978CC
:101F30008842C9D30448001F018821F002010180B2
:101F4000A9F800A0BDE8F08F102C0140001001405E
:101F5000242C01408C000020342C0140340000204F
:101F600010080140100C0140F0B5012189B0C802F1
:101F7000FFF7CEF9444D0021284600F01AF900225F
:101F80000721284600F029FA44F61F60ADF8180032
:101F900047200024ADF81400ADF81A40ADF8164003
:101FA0008DF81C4005A9284600F0E2FA684600F0CA
:101FB000D2FAADF80040ADF80240ADF806406946EF
:101FC000284600F013FA4FF47A70ADF8060069461F
:101FD000284600F061FA0021284600F053FA00215B
:101FE000284600F0ABFA294B294800219C805C80F0
:101FF0001C8010F8212000EB8107491C33F8126087
:102000007F88C9B23E4323F812601829F1D32149D1
:1020100018880860204958880860204998884861D5
:102020001A48801E4470047004721B208DF8100042
:102030008DF811408DF8124001208DF8130004A88E
:10204000FFF7B4F819208DF8100002208DF8110068
:102050008DF8124004A8FFF7A9F80021284600F0E7
:1020600084FA0721284600F0A1F80121284600F053
:10207000A1F901220521284600F0AFF901212846E7
:1020800000F097F809B0F0BD002C014036000020A8
:10209000C839000814080140140C01400010014028
:1020A000124810B50188C9071ED04FF6FE71018095
:1020B0000F4A00215170011F0A8822F002020A8093
:1020C0004FF6FD7101800A480A4A801C01881160A0
:1020D000094A41881160094980884861FFF72EFD4F
:1020E000BDE81040FFF77ABD10BD0000102C014084
:1020F0003400002014080140140C0140001001407D
:1021000010B50121880700F057F958B1012188075F
:1021100000F04CF80448006820B103480068401EF5
:102120000149086010BD00004400002010B50121E5
:102130001A4800F041F978B30121184800F036F848
:1021400017480068401C16490860084600683C2192
:10215000B0FBF1F201FB1200B0B91248007808B9E7
:10216000012000E000200F49087008460078002890
:1021700005DD4FF400510C48FEF71BFE04E04FF460
:1021800000510948FEF713FE05480068B0F5967F38
:1021900002D300200249086010BD00000004004086
:1021A000480000204C00002000100140CA43028279
:1021B000704721B1028842F00102028004E00288E7
:1021C0004FF6FE731A4002807047000010B50446B7
:1021D0006848844208D10121C014FFF7A9F8002102
:1021E000E014FFF7A5F8C4E0B4F1804F08D1012155
:1021F0000846FFF77DF800210120FFF779F8B8E0E5
:102200005D48844208D101210220FFF771F80021C6
:102210000220FFF76DF8ACE05848844208D1012154
:102220000420FFF765F800210420FFF761F8A0E023
:102230005348844208D101210820FFF759F80021B2
:102240000820FFF755F894E04E48844208D1012158
:102250001020FFF74DF800211020FFF749F888E023
:102260004948844208D101212020FFF741F800218C
:102270002020FFF73DF87CE04448844208D101214A
:102280004014FFF755F800216014FFF751F870E093
:102290003F48844209D10121C804FFF749F80021D1
:1022A0004FF40020FFF744F863E03A48844209D134
:1022B00001210805FFF73CF800214FF48010FFF7DB
:1022C00037F856E03448844209D101214805FFF728
:1022D0002FF800214FF40010FFF72AF849E02F48AB
:1022E000844208D101214020FFF702F8002140205C
:1022F000FEF7FEFF3DE02A48844208D101218020FC
:10230000FEF7F6FF00218020FEF7F2FF31E02548BE
:10231000844208D101218015FEF7EAFF0021A015B3
:10232000FEF7E6FF25E02048844209D10121080498
:10233000FEF7FEFF00214FF48030FEF7F9FF18E0B2
:102340001A48844209D101214804FEF7F1FF002117
:102350004FF40030FEF7ECFF0BE01548844208D143
:1023600001218804FEF7E4FF00214FF48020FEF7EE
:10237000DFFF10BD002C01400004004000080040B9
:10238000000C0040001000400014004000340140E8
:10239000004C014000500140005401400018004032
:1023A000001C00400020004000400140004401406B
:1023B000004801408182704730B50246002000236A
:1023C0000024158A05EA0103958905EA010413B181
:1023D0000CB1012000E0002030BD1AB183890B430D
:1023E000838102E083898B438381704770B5002429
:1023F00000220023058C4FF6FE7635400584028CC2
:102400008388048B4FF68F752C40B51E2C400D88A9
:102410002C43751E2A400D892A434D882A43144DAA
:10242000A8420BD0134DA84208D0134DA84205D0A6
:10243000124DA84202D0124DA84213D14FF6F775A3
:102440002A404D892A434FF6FB752A408D882A433E
:102450004FF6FF652B404FF6FF552B408D892B43E0
:10246000CD892B4383800483CD888586028470BD0B
:10247000002C014000340140004001400044014074
:10248000004801400A460021018B4FF6F7731940BE
:10249000114301837047000070B50024002200231F
:1024A000058C4FF6EF7635400584028C8388048BCB
:1024B00048F6FF752C404FF6FF452C400D884FF62F
:1024C000FF7606EA05252C434FF6DF752A400D8975
:1024D00006EA05152A434D8806EA05152A43154DD7
:1024E000A84202D0144DA8421DD14FF67F752A4054
:1024F0004D894FF6FF7606EA05152A434FF6BF755C
:102500002A408D8806EA05152A434FF6FF352B40F1
:102510004FF2FF752B408D8906EA85052B43CD8947
:1025200006EA85052B4383800483CD8805870284D2
:1025300070BD0000002C0140003401400A4600211B
:10254000018B4FF2FF7319404FF6FF7303EA02232A
:102550001943018370470021018041808180C1803F
:10256000018141818181C181704781847047000070
:10257000002202881D4B98420ED01D4B98420BD072
:10258000B0F1804F08D01B4B984205D01A4B9842AF
:1025900002D01A4B984204D14FF68F731A404B88E1
:1025A0001A43174B984207D0164B984204D04FF667
:1025B000FF431A40CB881A4302808B8883850B889F
:1025C00003850A4B98420BD0094B984208D00E4B1A
:1025D000984205D00D4B984202D00D4B984201D144
:1025E0000B7A03860123838270470000002C014090
:1025F000003401400004004000080040000C00408E
:102600000010004000140040004001400044014020
:102610000048014010B540F22551064800F05BF932
:1026200030B1044800F012FAC4B2204600F024FF92
:1026300010BD00000050004010B586B004460121D6
:102640000805FEF745FE01213020FEF761FE4FF43C
:102650008050ADF8140018208DF8170003208DF875
:10266000160005A91E48FEF7C5FA0420ADF81400AF
:102670008DF8170005A91B48FEF7BCFA019400204D
:10268000ADF80800ADF80A00ADF80C00ADF8100088
:102690000C20ADF80E0001A9134800F06BF90022E0
:1026A00040F22771104800F040F9012240F2255114
:1026B0000D4800F03AF901210B4800F000F93520EF
:1026C0008DF8000001208DF8010004208DF8020033
:1026D00001208DF803006846FEF768FD06B010BDC6
:1026E00000100140001401400050004010B50024CB
:1026F00040F22551054800F0EEF830B1034800F0F3
:10270000A5F9C4B2204600F0B7FE10BD0038014064
:1027100010B586B00446012144F20400FEF7F8FD2E
:102720004FF40070ADF8140018208DF81700032046
:102730008DF8160005A92248FEF75CFA4FF4806078
:10274000ADF8140004208DF8170005A91C48FEF709
:1027500051FA01940020ADF80800ADF80A00ADF878
:102760000C00ADF810000C20ADF80E0001A91548C2
:1027700000F000F9002240F22771124800F0D5F86D
:10278000012240F225510F4800F0CFF840210D48BA
:1027900000F08CF801210B4800F091F825208DF80D
:1027A000000001208DF8010003208DF802000120B7
:1027B0008DF803006846FEF7F9FC06B010BD000076
:1027C000000801400038014010B540F2255106488C
:1027D00000F081F830B1044800F038F9C4B2204666
:1027E00000F04AFE10BD00000048004010B586B061
:1027F000044601218804FEF76BFD01211120FEF73C
:1028000087FD01212648FEF781FA4FF48060ADF87C
:10281000140018208DF8170003208DF8160005A964
:102820002048FEF7E7F94FF40060ADF814000420EB
:102830008DF8170005A91B48FEF7DCF9019400206C
:10284000ADF80800ADF80A00ADF80C00ADF81000C6
:102850000C20ADF80E0001A9134800F08BF80022FF
:1028600040F22771104800F060F8012240F2255133
:102870000D4800F05AF801210B4800F020F82720FD
:102880008DF8000001208DF8010004208DF8020071
:1028900001208DF803006846FEF788FC06B010BDE5
:1028A00010001400001001400048004001F40072C4
:1028B000B2F5007F00D100BFCA430280704721B14A
:1028C000828942F40052828104E082894DF6FF73CE
:1028D0001A408281704770B502460024002300250B
:1028E000002040F66A16B14200D100BFC1F3421584
:1028F00001F01F03012606FA03F3012D02D1968988
:10290000334006E0022D02D1168A334001E0968A58
:1029100033400C12012606FA04F41688344013B131
:102920000CB1012000E0002070BDF0B5034600248A
:1029300000260025002040F66A17B94200D100BFEA
:102940001846C1F3421401F01F06012707FA06F5E5
:10295000012C01D10C3004E0022C01D1103000E038
:1029600014301AB107682F43076002E00768AF43CD
:102970000760F0BD2DE9F04786B005460E460024FD
:10298000A24600BFA1460027B08900B100BF2F4674
:102990002C8A4CF6FF700440F08804432C82AC89EA
:1029A0004EF6F3100440B08831890843718908431A
:1029B0000443AC81AC8A4FF6FF400440B089044325
:1029C000AC8201A8FEF7C4FC1F48874202D1DDF8A3
:1029D00010A001E0DDF80CA0A88900F4004040B18F
:1029E0000AEBCA0000EB0A1031684900B0FBF1F8AD
:1029F00007E00AEBCA0000EB0A1031688900B0FB5F
:102A0000F1F86420B8FBF0F004012009642101FB17
:102A10001089A88900F4004040B1322000EBC900C1
:102A2000B0FBF1F000F00700044308E0322000EBB7
:102A300009106421B0FBF1F000F00F0004432C8179
:102A400006B0BDE8F08700000038014001468888E4
:102A5000C0F30800704700BFFEE700000FB4084B4A
:102A600010B504A902AA039800F0DEF8044602A9F2
:102A7000002000F05CFC204610BC5DF814FB000058
:102A80002F33000802E008C8121F08C1002AFAD13B
:102A900070477047002001E001C1121F002AFBD1DE
:102AA000704700002DE9FF5F82B00021DDE90430AE
:102AB000020DDDF840B0034318D044F61050A2F2E6
:102AC000FF3242431514119801281FD0A5EB0B00CB
:102AD000401C5FEA000A4FF000064E4FDFF83891C5
:102AE000B046504615D5CAF1000413E011980124F0
:102AF0004AA3012801D16FEA0B010298119AC0E99B
:102B00000031C0E9024206B0BDE8F09FCBF1000001
:102B1000DFE704460021404A491842EB0450CDE962
:102B2000001012E0E00707D032463B4640464946D7
:102B3000FDF760FB8046894632463B461046194603
:102B4000FDF758FB06460F466410002CEAD1DDE97C
:102B50000401DDE90023BAF1000F06DAFDF74AFBB4
:102B600042464B46FDF746FB05E0FDF7B5FB424606
:102B70004B46FDF7B1FB04460E460022284BFDF7FD
:102B800013FE03D84FF0FF30014607E00022254B2B
:102B900020463146FDF748FDFDF7EDFD102409E024
:102BA000002C0ADB0A220023FDF779FC039B30325C
:102BB0001A55641E50EA0102F2D1641C039AC4F152
:102BC00011031444119A012A03D0012208430DD1A4
:102BD0000AE0084304D000204FF0110B119072E777
:102BE000A3EB0B056D1E0DE05B4504DD4FF000020D
:102BF00005F1010504E003DA4FF00002A5F101053B
:102C0000002AECD002981199C0E90231C0E90045D0
:102C100079E70000000014400000F03F30000000A1
:102C20000000F0430000E03F2DE9FF4F95B09A46C9
:102C3000884606460025EEE1252877D10024274660
:102C4000F94A0121039400E0044316F8013F203BB8
:102C500001FA03F01042F7D130782A2811D06FF032
:102C60002F033078A0F13002092A16D8039A44F0D5
:102C7000020402EB820203EB42021044761C039032
:102C8000EFE758F8042B0392002A03DA504244F489
:102C90000054039044F00204761C30782E2816D19C
:102CA00016F8010F44F004042A280DD06FF02F020B
:102CB0003078A0F13003092B09D807EB870302EB2A
:102CC0004303C718761CF3E758F8047B761C30786A
:102CD0006C280FD006DC4C2817D068280DD06A2845
:102CE00014D104E0742810D07A280FD10DE044F4F8
:102CF00000140AE044F4801401E044F440147278B3
:102D0000824202D104F58014761C761C3078662845
:102D10000BD013DC582877D009DC002875D0452863
:102D2000F6D04628F4D047281AD193E118E063285A
:102D300035D0642879D0652812D18BE1702873D002
:102D400008DC6728F1D069286FD06E280DD06F2875
:102D500006D1ACE073282CD0752874D0782853D0D5
:102D60005246179990476D1C54E1C4F30250022853
:102D700009D003280DD0D8F8001004280DD00D601C
:102D800008F1040846E1D8F80010EA17C1E900523A
:102D9000F6E7D8F800100D80F2E70D70F0E718F8AC
:102DA000041B8DF8001000208DF80100EB46012077
:102DB00003E058F804BB4FF0FF3061074FF000010B
:102DC00002D40DE009F101018946B9420FDA8145CB
:102DD000F8DB1BF809100029F4D108E009F1010122
:102DE00089468142FADB1BF809100029F6D10398C5
:102DF0005346A0EB090721463846179A00F080FA9F
:102E0000284400EB090507E044E008E10DE01BF869
:102E1000010B524617999047B9F10109F7D2534671
:102E200021463846179AF2E039E00A21C4F30252EB
:102E30004FF0000B0091022A06D058F8040BC1177E
:102E4000032A09D00AE023E008F1070020F0070276
:102E5000F2E80201904605E000B2C117042A01D150
:102E600040B2C117002906DA0A460021404261EB50
:102E700002012D2202E0220504D52B228DF8042028
:102E8000012203E0E20701D02022F7E7914657E054
:102E90000A2100E010214FF0000B00910BE01021FF
:102EA0004FF0000B44F004040827009103E00820D1
:102EB0004FF0000B0090C4F30252022A05D058F8DC
:102EC000040B0021032A08D008E008F1070020F0D5
:102ED0000702F2E80201904603E080B2042A00D122
:102EE000C0B24FF0000922072AD53278702A07D0E5
:102EF000DDF800C08CF0100C5CEA0B0C05D00EE085
:102F000040228DF80420012208E050EA010306D097
:102F100030238DF804308DF8052002229146009B65
:102F200083F0080353EA0B030AD150EA010201D1EE
:102F3000620705D530228DF804204FF001097F1E6D
:102F40003278582A04D039A20C920CAA02920BE0D3
:102F50003BA2F9E75B46009AFDF7A1FA0C9B9B5C4C
:102F6000029A521E0292137050EA0102F2D10298A4
:102F700004A9081A00F1200B600702D524F480345C
:102F800000E001275F4502DDA7EB0B0000E0002019
:102F900000EB0B01009003984944401A0390E003B2
:102FA00006D453462146179A039800F0A9F9054420
:102FB000002706E001A85246C05D179990476D1C96
:102FC0007F1C4F45F6DBE0030CD553462146179A8C
:102FD000039800F095F9054404E030205246179913
:102FE00090476D1C0099481E00900029F5DC08E010
:102FF0000298029952460078491C0291179990470D
:103000006D1CBBF10001ABF1010BF1DC5BE100F0E9
:1030100065F90544761C307800287FF40DAE19B0B0
:103020002846BDE8F08F0000092801003031323316
:1030300034353637383961626364656600000000F4
:1030400030313233343536373839414243444546DE
:1030500000000000600700D4062708F1070020F0F8
:103060000700F0E80223804603F0004C5FEA0C0002
:1030700001D097A009E0200501D596A005E0E00762
:1030800001D095A001E0AFF24C001390307823F00E
:10309000004365280CD006DC452809D046281DD001
:1030A00047287FD13BE0662818D067287AD136E0E0
:1030B0000021112F01DB112000E0781CCDE9000177
:1030C00004A90CA8FFF7EEFCDDE90D010C9A4FF006
:1030D000000B07F10109109200914EE04FF0004003
:1030E0000097CDE9011004A90CA8FFF7DBFCDDE98E
:1030F0000D020C9B0F994FF0000B9146109300921C
:1031000011B9791C00EB0109B7EB090003D4C0F138
:10311000FF3B07F10109A9EB0700019042E0012FF5
:1031200000DA01270021112F01DD112000E03846CF
:10313000CDE9000104A90CA8FFF7B4FCDDE90D01FD
:103140000C9A00914FF0000BB946109221070FD452
:10315000009A4A4503DA914601E0A9F10109B9F163
:10316000010F05DD109AA9F10101515C3029F4D05D
:10317000B84202DA10F1040F03DA0121CDE901109F
:1031800010E0002803DC8344A9EB000102E0411CAD
:10319000494500DD8946A0EB0B00401C01904FF033
:1031A00000400290200705D40198484502DB4FF00B
:1031B000FF30019000208DF84B0002980DF14B0775
:1031C000B0F1004F25D002200C902B200D900298DA
:1031D00000280CDA404202902D200D9007E00A21D1
:1031E0000298FDF746F93031029007F8011D0C995D
:1031F000481E0C900029F2DC02980028EFD1791EBD
:103200000D980870307800F0200040F0450007F875
:10321000020D11A8C01BC01D02901398007800B1C8
:10322000012000EB0901019801EBE07102980144D3
:103230000398401A401E0390E00306D453462146EB
:10324000179A039800F05CF805441398007818B1B9
:103250005246179990476D1CE00323D553462146EB
:10326000179A039800F04CF805441BE0BBF1000FDF
:1032700007DB0098584504DD1098179910F80B00EB
:1032800001E0179930205246904701980BF1010B4D
:10329000401E05F10105019004D12E2052461799D8
:1032A00090476D1CB9F10001A9F10109DEDC05E0D0
:1032B00017F8010B5246179990476D1C0299481E4A
:1032C00002900029F4DC53462146179A03989EE6A3
:1032D0002D0000002B000000200000002DE9F0412F
:1032E000044600251E461746880404D405E03946E6
:1032F0002020B0476D1C641EF9D52846BDE8F0813A
:103300002DE9F041044600251E469046C80301D52C
:10331000302700E02027880404D505E041463846E0
:10332000B0476D1C641EF9D52846BDE8F0810A68D7
:10333000531C0B601070704710B50E48006880B1C8
:103340004FF480510C48FDF734FD642000F0C0F9C3
:103350004FF480510848FDF72AFD642000F0B8F9C9
:1033600007E00448006820B94FF480510248FDF797
:103370001EFD10BD44000020000801401FB50121C2
:103380000846FDF7A5FF4FF08040FEF71FFF6320C2
:10339000ADF8080040F2CF20ADF804000020ADF8F1
:1033A0000A00ADF8060001A94FF08040FFF7E0F8F1
:1033B000012211469007FFF710F84FF4A060FDF7C7
:1033C0002DFF00208DF801008DF802001C208DF8E3
:1033D000000001208DF803006846FDF7E7FE01219B
:1033E0008807FEF7E6FE1FBD10B5FEF7FDFC4FF4A3
:1033F000A060FDF713FF00F045F9C82000F068F960
:10340000FEF7C2F9FEF7B0FD4FF4E130FFF780F9A7
:103410004FF41650FFF7EAF94FF41650FFF70CF986
:1034200000F0DAF900F0C0F9FDF7A8FEFDF74AFB5D
:10343000FDF7E2FDFDF7DCFC00F098F9FEF772F80D
:1034400001230022194606A0FDF7F7FE01210846D8
:10345000FDF75EFF01210748FDF758FC10BD000095
:103460004F4C454420696E697420737563657373AE
:10347000000000000002300010B50446242C0FD1DB
:1034800000201D49087001201C49087024211A4899
:1034900002780078401C184B18701948815410BDF0
:1034A0001648007800B9FAE7232C10D100201449FF
:1034B000114A1278885410480078052801D100F08C
:1034C00021F800200C4908700C490870E7E70A4809
:1034D0000078092805DB00200749087007490870B3
:1034E000DDE7054801780078401C034A1070044865
:1034F000445400BFD3E700008A0000208B00002066
:103500007004002070B524480078242807D1224890
:103510004078412803DB20484078582801DD01200D
:1035200070BD02220BE01C48805C302803DB1A4887
:10353000805C392801DD0120F2E7501CC2B2052A67
:10354000F1DB154840784138C1B2134880783038F3
:1035500064246043104CE478303C04EB840400EBBA
:1035600044000D4C24792044303883B2B42B00DD64
:10357000B4230846CD1701EB5575ED10074E06EB49
:1035800045150C46CE1701EB5676F610A1EBC60694
:1035900045F826300020C3E7700400204C010020CD
:1035A0002DE9FC470124FDF7D9FA044654B905205A
:1035B00000F082F90123002219461FA0FDF73DFE0D
:1035C00000F026F9012C33D11F480068FCF722FFD8
:1035D000CDE900011D4802781DA12248FFF73EFAFF
:1035E0000123002219461F48FDF727FE14211D481C
:1035F000FCF7C3FDFDF7E2FA8246FCF7E1FE074661
:103600000022194BFCF768FE0546FCF716FF8146C1
:103610004846FCF7FFFE05462A460B4613A1114813
:10362000FFF71CFA0123002203210E48FDF705FED7
:10363000FFF782FEBDE8FC87766F6C7461676520DA
:103640006C6F772E2E2E000004000020000000205A
:1036500047726F703A256420205665723A252E31E4
:10366000662000005C040020000059404261747430
:1036700065727920766F6C3A20252E3166205620AF
:103680000000000010B50E4800680E49B0FBF1F0D4
:10369000C4B26FF00400FEF791FBE11704EB517127
:1036A000C910094A11701046007800EB4001C1EBC7
:1036B000C0104FF6FF7101EAC0000449088010BD38
:1036C0000800002040420F0030000020320000209F
:1036D00001460D4A12884A434FF0E0235A61002206
:1036E0009A6101221A6100BF4FF0E022106900F0D8
:1036F00001021AB100F48032002AF5D000224FF006
:10370000E0231A619A617047320000202DE9F041F0
:1037100005460E4617469846FDF7B2FB10B9012044
:10372000BDE8F0816906080EFDF778FBFDF704FCA3
:1037300018B9FDF7D9FB0120F2E73046FDF76EFB23
:10374000FDF7FAFB00240BE018F80400FDF766FB18
:10375000FDF7F2FB18B9FDF7C7FB0020E0E7641C9A
:10376000BC42F1DBFDF7C0FB0020D9E770B50025B6
:10377000012413E0FDF784FB00B970BD6106080E5B
:10378000FDF74CFBFDF7D8FB00B906E0FDF7ACFBFD
:10379000681CC5B203490C5500BF641C802CE9DBD2
:1037A00000BFEAE7DC01002008B501210420FDF795
:1037B000AFFD4FF48050ADF8000010208DF80300ED
:1037C00003208DF8020069460248FDF713FAFFF75F
:1037D000D5FD08BD0008014008B501211020FDF706
:1037E00097FD4FF40050ADF8000010208DF8030055
:1037F00003208DF8020069460448FDF7FBF94FF4F9
:1038000000510248FDF7D5FA08BD00000010014044
:103810001FB501210220FDF75BFD1848FEF7D6FC1D
:1038200040F2E730ADF8080040F2CF20ADF80400D8
:103830000020ADF80A00ADF8060001A90F48FEF718
:1038400097FE012211460D48FEF7C7FD4FF4A06018
:10385000FDF7E4FC00208DF8010001208DF8020046
:103860001D208DF8000001208DF803006846FDF74B
:103870009DFC01210148FEF79CFC1FBD0004004097
:10388000FEF738F9FFF7B0FD13E0FFF789FE00F00F
:1038900033F80120FDF73EFC01280AD105480078E5
:1038A000401C0449087008460078022801DD002009
:1038B0000870EAE7000000204FF47A714143014AA2
:1038C000116070474400002037B504460D4602AB36
:1038D000012229462046FFF719FF3EBD2DE9F041A0
:1038E00006460F4614461D46EAB223463946304680
:1038F000FFF70CFFBDE8F0812DE9F0474FF000091C
:10390000FDF7C0FB8146B9F1000F1ED1FDF7E2FBC8
:103910008246FCF755FD074600221E4BFCF7DCFCF7
:103920000546FCF78AFD04462046FCF773FD054674
:103930002A460B4618A11D48FFF790F801230022E4
:1039400002211A48FDF779FC20E0FDF7C3FB82460F
:10395000FCF736FD074600220E4BFCF7BDFC054682
:10396000FCF76BFD04462046FCF754FD05462A464D
:103970000B460FA10D48FFF771F80520FFF79CFFDC
:103980000123002202210948FDF757FCFFF7D4FC70
:10399000BDE8F0870000594043757272656E743A55
:1039A00020252E3266204120000000005C0400200B
:1039B00043757272656E742068617264213A2025C5
:1039C0002E326620412000000000010000000200AD
:1039D00000000400000008000100100001002000A9
:1039E0000100010001000200000000800100080049
:1039F00001000004010000080100400001008000F7
:103A000001000001010000020200400002008000ED
:103A1000020000010200000200000001010000405D
:103A2000010000800000000800000000000000000D
:103A30000000000000000000000000000010001066
:103A40000010001000100010000000100000000026
:103A500000280028002800000000000000000000EE
:103A60000000000000240024007C00240048007CAA
:103A700000480048000000000038005400500038A2
:103A800000140054005400380010000000200054BE
:103A90000058003000280054001400080000000006
:103AA00000100028002800100034004800480034AE
:103AB00000000000001000100010000000000000D6
:103AC000000000000000000000080010002000209E
:103AD000002000200020002000100008002000101E
:103AE0000008000800080008000800080010002076
:103AF0000010003800100028000000000000000046
:103B0000000000000000000000100010007C001009
:103B10000010000000000000000000000000000095
:103B20000000000000000010001000100000000065
:103B3000000000000000003800000000000000004D
:103B40000000000000000000000000000000001065
:103B50000000000000080008001000100010001015
:103B60000020002000000000003800440044005401
:103B70000044004400440038000000000010003001
:103B80000050001000100010001000100000000095
:103B90000038004400440004000800100020007CAD
:103BA0000000000000380044000400180004000475
:103BB0000044003800000000000800180028002819
:103BC0000048007C0008000800000000007C004065
:103BD00000400078000400040044003800000000A9
:103BE000003800440040007800440044004400389D
:103BF00000000000007C00040008001000100020FD
:103C0000002000200000000000380044004400387C
:103C10000044004400440038000000000038004424
:103C200000440044003C0004004400380000000050
:103C30000000000000100000000000000000001064
:103C40000000000000000000000000100000000064
:103C5000000000100010001000000000000C0030F8
:103C600000400030000C00000000000000000000D8
:103C70000000007C0000007C00000000000000004C
:103C80000000000000600018000400180060000040
:103C9000000000000038004400040008001000107C
:103CA000000000100000000000380044004C0054E8
:103CB000005C0040004000380000000000100028B8
:103CC000002800280028007C004400440000000078
:103CD0000078004400440078004400440044007828
:103CE0000000000000380044004000400040004058
:103CF0000044003800000000007000480044004408
:103D0000004400440048007000000000007C0040B7
:103D10000040007C004000400040007C00000000AB
:103D2000007C00400040007800400040004000401F
:103D3000000000000038004400400040005C0044E7
:103D40000044003800000000004400440044007CAF
:103D5000004400440044004400000000003800100B
:103D600000100010001000100010003800000000CB
:103D700000040004000400040004000400440038AF
:103D8000000000000044004800500060005000485F
:103D90000048004400000000004000400040004097
:103DA000004000400040007C000000000044006C27
:103DB000006C005400440044004400440000000033
:103DC00000440064006400540054004C004C004463
:103DD0000000000000380044004400440044004457
:103DE0000044003800000000007800440044004413
:103DF000007800400040004000000000003800440F
:103E00000044004400440044005400380004000012
:103E10000078004400440044007800480048004412
:103E2000000000000038004400400030000800049A
:103E30000044003800000000007C0010001000105A
:103E400000100010001000100000000000440044AA
:103E500000440044004400440044003800000000D6
:103E600000440044004400280028002800100010EE
:103E70000000000000440044005400540054006C52
:103E8000002800280000000000440028002800103E
:103E900000100028002800440000000000440044F6
:103EA0000028002800100010001000100000000082
:103EB000007C000400080010001000200040007C7E
:103EC000000000000018001000100010001000108A
:103ED000001000100010001800200020001000103A
:103EE0000010001000080008000000000030001062
:103EF0000010001000100010001000100010003022
:103F0000001000280028004400000000000000000D
:103F100000000000000000000000000000000000A1
:103F20000000000000FE0000002000100000000063
:103F30000000000000000000000000000000000081
:103F400000380044003C0044004C003400000000F5
:103F500000400040005800640044004400640058E1
:103F60000000000000000000003800440040004055
:103F70000044003800000000000400040034004C3D
:103F800000440044004C0034000000000000000029
:103F900000380044007C004000440038000000006D
:103FA000000C0010007C0010001000100010001029
:103FB00000000000000000000034004C00440044F9
:103FC000004C0034000400780040004000580064B9
:103FD00000440044004400440000000000100000C1
:103FE0000070001000100010001000100000000011
:103FF00000100000007000100010001000100010F1
:10400000001000E0004000400048005000600050F8
:104010000048004400000000007000100010001074
:104020000010001000100010000000000000000050
:104030000078005400540054005400540000000064
:1040400000000000005800640044004400440044A4
:10405000000000000000000000380044004400445C
:104060000044003800000000000000000058006418
:10407000004400440064005800400040000000007C
:104080000034004C00440044004C003400040004A0
:104090000000000000580064004000400040004064
:1040A000000000000000000000380044003000085C
:1040B00000440038000000000020002000780020AC
:1040C0000020002000200018000000000000000078
:1040D0000044004400440044004C00340000000050
:1040E00000000000004400440028002800280010C0
:1040F0000000000000000000005400540054006C58
:1041000000280028000000000000000000440028F3
:104110000010001000280044000000000000000013
:104120000044004400280028001000100010006027
:1041300000000000007C0008001000200040007C0F
:1041400000000000001800100010001000200020E7
:1041500000100010001000180010001000100010D7
:1041600000100010001000100010001000300010AF
:1041700000100010000800080010001000100030AF
:104180000000000000000074004C0000000000006F
:10419000000000000000000000000000000000001F
:1041A000000000000000000000000000000000000F
:1041B00000000000000000000000000C000C000CDB
:1041C000000C000C000C000C000C000C000C000C8F
:1041D0000000000C000C0000000000000000001BAC
:1041E000001B001B001B001B000000000000000063
:1041F00000000000000000000000000000000000BF
:1042000000008019801980198019C07FC07F801933
:104210000033C07FC07F0033003300330033000021
:10422000000000000000001E003F807580650074E3
:10423000003C001E00078005806580658075003F9A
:10424000001E0004000400000000007000D840D8E8
:10425000C0D880D900730006000C801BC036C06631
:10426000C046C00680030000000000000000001EE1
:10427000003F003300330033001E000CC03CC0661A
:10428000806380618063C03E801C000000000000ED
:104290000000000C000C000C000C000C00000000E2
:1042A000000000000000000000000000000000000E
:1042B000000000008000000100030006000600046A
:1042C000000C000C000C000C000C000C000400069C
:1042D0000006000300018000002000100018000C00
:1042E000000C00040006000600060006000600069A
:1042F0000004000C000C0018001000200000000C4E
:10430000002D003F001E00330000000000000000F0
:10431000000000000000000000000000000000009D
:10432000000000000000000C000C000C000CC0FF9E
:10433000C0FF000C000C000C000C0000000000008E
:10434000000000000000000000000000000000006D
:104350000000000000000000000000000000000C51
:10436000000C000400040008000000000000000031
:1043700000000000000000000000001E001E000001
:10438000000000000000000000000000000000002D
:10439000000000000000000000000000000000001D
:1043A000000000000000000C000C000000000000F5
:1043B00000000003000300030006000600060006DC
:1043C000000C000C000C000C001800180018000075
:1043D000000000000000001E003F0033806180618B
:1043E0008061806D806D8061806180610033003FFD
:1043F000001E00000000000000000006000E001E6D
:10440000003600260006000600060006000600062C
:104410000006000600060000000000000000001E6C
:10442000003F807380618061800100030006000C02
:10443000001800300060807F807F000000000000D6
:104440000000001C003E006300630003000E000E2D
:1044500000038001800180618073003F001E000026
:104460000000000000000006000E000E001E001EEE
:104470000016003600360066807F807F000600064A
:1044800000060000000000000000007F007F0060C8
:1044900000600060006E007F8063800180018061A9
:1044A0008073003F001E0000000000000000001E9E
:1044B000003F803380610060006E007F8073806108
:1044C000806180618033003F001E0000000000001A
:1044D0000000807F807F800100030003000600064B
:1044E000000C000C000C0008001800180018000058
:1044F000000000000000001E003F806380618061BA
:104500000021001E003F8061806180618061003F6A
:10451000001E0000000000000000001E003F0073AD
:104520008061806180618073803F801D8001806137
:104530000073003F001E00000000000000000000AB
:10454000000000000000000C000C00000000000053
:10455000000000000000000C000C00000000000043
:10456000000000000000000000000000000C000C33
:1045700000000000000000000000000C000C00041F
:10458000000400080000000000000000800080031C
:10459000000E003800600038000E8003800000002C
:1045A000000000000000000000000000000000000B
:1045B0000000807F807F00000000807F807F0000FF
:1045C00000000000000000000000000000000000EB
:1045D0000000000000400070001C00078001000780
:1045E000001C0070004000000000000000000000FF
:1045F0000000001F803FC071C060C000C001800388
:104600000007000E000C000C0000000C000C000065
:10461000000000000000001E003F803180718063B8
:10462000806F806D806D806F806700600032003E1B
:10463000001C0000000000000000000E000E001B27
:10464000001B001B001B80318031803F803F803188
:10465000C060C060C0600000000000000000007C7E
:10466000007E0063006300630063007E007E0063E1
:10467000806180618063007F007E00000000000098
:104680000000001E003F803180610060006000601B
:1046900000600060006080618031003F001E00000B
:1046A000000000000000007C007F006380638061E8
:1046B0008061806180618061806100630063007E51
:1046C000007C0000000000000000807F807F006010
:1046D000006000600060007F007F0060006000609C
:1046E0000060807F807F0000000000000000807F6D
:1046F000807F0060006000600060007F007F0060DD
:1047000000600060006000600060000000000000C9
:104710000000001E003F803180610060006000608A
:1047200080638063806180618031803F001E000073
:104730000000000000008061806180618061806114
:104740008061807F807F8061806180618061806125
:1047500080610000000000000000003F003F000CEE
:10476000000C000C000C000C000C000C000C000CE9
:10477000000C003F003F000000000000000080012E
:104780008001800180018001800180018001800121
:10479000806180618073003F001E00000000000007
:1047A0000000C0608061006300660066006C0078F5
:1047B000007C00660066006380618061C06000006C
:1047C0000000000000000060006000600060006009
:1047D0000060006000600060006000600060807F3A
:1047E000807F0000000000000000C071C071C07B2D
:1047F000C07AC06AC06AC06EC064C060C060C06079
:10480000C060C060C0600000000000000000807157
:104810008071807980798079806D806D806D806510
:10482000806780678067806380630000000000000D
:104830000000001E003F0033806180618061806164
:1048400080618061806180610033003F001E000054
:10485000000000000000007E007F806380618061B6
:1048600080618063007F007E006000600060006007
:1048700000600000000000000000001E003F003348
:104880008061806180618061806180618065806716
:104890000033803F401E0000000000000000007E4A
:1048A000007F8063806180618063007F007E00669E
:1048B0000063006380618061C06000000000000050
:1048C0000000000E001F8031803100300038001ED3
:1048D00000078003806180618031003F001E00007E
:1048E000000000000000C0FFC0FF000C000C000C26
:1048F000000C000C000C000C000C000C000C000C58
:10490000000C0000000000000000806180618061F8
:10491000806180618061806180618061806180618F
:104920008073003F001E0000000000000000C06017
:10493000C060C060803180318031001B001B001BD3
:10494000001B000E000E000E00040000000000001E
:104950000000C0C0C0C0C0C0C0C0C0C0C0CC804C7F
:10496000804C805E80528052807380618061000044
:10497000000000000000C0C0806080610033003B88
:10498000001E000C000C001E001F003B80718061A7
:10499000C0C00000000000000000C0C08061806155
:1049A00000330033001E001E000C000C000C000C35
:1049B000000C000C000C0000000000000000803F14
:1049C000803F8001000300030006000C000C00186B
:1049D000001800300060807F807F00000000000031
:1049E000000F000F000C000C000C000C000C000C61
:1049F000000C000C000C000C000C000C000C000C57
:104A0000000F000F0000001800180018000C000C28
:104A1000000C000C00060006000600060003000360
:104A20000003000000000000001E001E000600063B
:104A30000006000600060006000600060006000646
:104A40000006000600060006001E001E0000000C06
:104A5000000C001E001200330033806180610000F2
:104A60000000000000000000000000000000000046
:104A70000000000000000000000000000000000036
:104A80000000000000000000000000000000000026
:104A9000E0FF0000000000380018000C00000000DB
:104AA0000000000000000000000000000000000006
:104AB00000000000000000000000000000000000F6
:104AC0000000001F803F80618001801F803F806167
:104AD0008063807FC038000000000000000000609C
:104AE000006000600060006E007F80738061806104
:104AF000806180618073007F006E00000000000014
:104B000000000000000000000000001E003F807355
:104B100080610060006080618073003F001E0000C3
:104B20000000000000008001800180018001801DE4
:104B3000803F807380618061806180618073803F8D
:104B4000801D0000000000000000000000000000C8
:104B50000000001E003F00738061807F807F006046
:104B60008071003F001E0000000000000000C00730
:104B7000C00F000C000C807F807F000C000C000C2C
:104B8000000C000C000C000C000C000000000000E9
:104B90000000000000000000801D803F80738061E5
:104BA0008061806180618073803F801D80018063AF
:104BB000007F003E00000060006000600060006F49
:104BC000807F8071806180618061806180618061AF
:104BD00080610000000000000000000600060000E8
:104BE0000000003E003E000600060006000600062B
:104BF0000006000600060000000000000006000697
:104C000000000000003E003E000600060006000610
:104C1000000600060006000600060046007E003C76
:104C2000000000600060006000608061006300665A
:104C3000006C007C0076006300638061C06000004F
:104C4000000000000000003E003E000600060006D6
:104C50000006000600060006000600060006000624
:104C6000000600000000000000000000000000003E
:104C7000000080DDC0FFC0CEC0CCC0CCC0CCC0CC5A
:104C8000C0CCC0CCC0CC0000000000000000000080
:104C9000000000000000006F807F807180618061F3
:104CA000806180618061806180610000000000009F
:104CB00000000000000000000000001E003F8073A4
:104CC00080618061806180618073003F001E000010
:104CD000000000000000000000000000006E007FE7
:104CE000807380618061806180618073007F006E6D
:104CF0000060006000600060000000000000000034
:104D0000801D803F807380618061806180618073DD
:104D1000803F801D80018001800180010000000033
:104D20000000000000000067803F003900300030C4
:104D30000030003000300030003000000000000083
:104D400000000000000000000000001E803F8061A5
:104D50000060007F803F80018061007F001E0000B6
:104D60000000000000000000000800180018007F8C
:104D7000007F001800180018001800180018801F85
:104D8000800F000000000000000000000000000094
:104D900000008061806180618061806180618061EC
:104DA0008063807F803D0000000000000000000064
:104DB000000000000000C060803180318031001BA5
:104DC000001B001B000E000E00060000000000008B
:104DD0000000000000000000000080DD80DD80DDBC
:104DE0000055005500550077007700220022000092
:104DF00000000000000000000000000000008061D2
:104E000000330033001E000C000C001E0033003382
:104E100080610000000000000000000000000000B1
:104E200080618061803100330033001B001B001B58
:104E3000000E000E000E001C007C00700000000040
:104E4000000000000000C07FC07F8001000300065A
:104E5000000C00180030C07FC07F00000000000080
:104E60008003800700060006000600060006000E0C
:104E7000001C001C000E00060006000600060006CE
:104E800080078003000600060006000600060006F4
:104E900000060006000600060006000600060006E2
:104EA00000060006000600060038003C000C000C5E
:104EB000000C000C000C000E00070007000E000C98
:104EC000000C000C000C000C003C0038000000003E
:104ED000000000000000000000008038807F0047D4
:104EE00000000000000000000000000000000000C2
:104EF00000000000000000000000000000000000B2
:104F000000000000000000000000000000000000A1
:104F10000000000000000000000000000000000091
:104F200000000000E003E003E003E003E003E0032F
:104F3000E003E003C003C003C001C001C001C00121
:104F4000C001000000000000E003E003E0030000F7
:104F500000000000000000003C1E3C1E3C1E3C1EE9
:104F60003C1E3C1E3C1E0000000000000000000033
:104F70000000000000000000000000000000000031
:104F8000000000000000000000000000CE01CE0381
:104F9000DE039E039C039C07FF3FFF7F3807380F0B
:104FA000780F780F780EFFFFFFFFF01EF01CE01C5B
:104FB000E03CE03DE039000000000000000000009F
:104FC000FC03FE0FEE1FE01EE01EE01EE01EE01FD1
:104FD000E00FE007F003FC01FE01FE01FE01FE010F
:104FE000FE01FE01FE3DFC3FF00FE001E00100008C
:104FF00000000000033E07F78FE78EE79EE3BCE367
:10500000B8E7F8E7F0F7E03FC001FF03FF07F30759
:10501000F30FF31EF33CF338F3787FF03FE000002A
:105020000000000000000000E007F80F780F781F74
:10503000781F781F780FF00FE00F801FC37FC3FB2E
:10504000E7F3F7F1F7F0FFF07FF03EF87F7CFF3FEA
:10505000EF1F00000000000000000000E003E0037C
:10506000E003E003E003C003C00100000000000013
:105070000000000000000000000000000000000030
:105080000000000000000000000000000000000020
:105090003F007C00F001E001C003C00780078007EB
:1050A000800F000F000F000F000F000F000F800F88
:1050B00080078007C007C003E001F0017C003F00CB
:1050C0000F000000007E001FC007C003E001F001D8
:1050D000F000F000F80078007800780078007800A0
:1050E0007800F800F000F000F001E001C003C00714
:1050F000001F007E00780000E003C003C001CE392D
:10510000FF3F7F3F20037003F807780F3C1F3806EE
:10511000000000000000000000000000000000008F
:10512000000000000000000000000000000000007F
:105130000000000000000000C001C001C001C0016B
:10514000C001C001C001FFFFFFFFC001C001C001DD
:10515000C001C001C001000000000000000000000C
:10516000000000000000000000000000000000003F
:10517000000000000000000000000000000000002F
:105180000000E003E003E003E003E001E001E001F0
:10519000C0018003000000000000000000000000CB
:1051A00000000000000000000000FE3FFE3F000085
:1051B00000000000000000000000000000000000EF
:1051C00000000000000000000000000000000000DF
:1051D00000000000000000000000000000000000CF
:1051E00000000000000000000000E003E003E00316
:1051F000E003000000000000000000000F000F00AE
:105200001E001E003C003C0078007800F000F0001A
:10521000E001E001C003C00380078007000F000F1A
:10522000001E001E003C003C0078007800F00000EA
:10523000F007F80F7C1F3E3E1E3C1F7C1F7C0F7842
:105240000F780F780F780F780F780F781F7C1F7CFE
:105250001E3C3E3E7C1FF80FF007000000000000DF
:1052600000000000F000F007F03FF03FF001F00117
:10527000F001F001F001F001F001F001F001F001A6
:10528000F001F001F001F001F001FF3FFF3F0000ED
:105290000000000000000000E00FF83F7C3C3C00F4
:1052A0003E003E003E003C003C007C00F800F00167
:1052B000E003C0078007000F001E003E003CFE3FD9
:1052C000FE3F00000000000000000000F00FF81F8B
:1052D0007C1C3E003E003E003C003C00F800F00F0D
:1052E000F80F7C003E001E001E001E001E003E0047
:1052F0007C1CF81FE01F0000000000000000000000
:105300007800F800F800F801F803F807F807780FBC
:10531000781E781E783C78787878FFFFFFFF780059
:105320007800780078007800780000000000000025
:1053300000000000FC1FFC1FFC1F001E001E001EC2
:10534000001E001EE01FF81FFC007C003E003E0017
:105350001E003E003E003C007C1CF81FE01F0000C9
:105360000000000000000000FC01FE078E0F001F7F
:10537000001E003E003C003CF83DFC3F3E7F1F7E8F
:105380000F3C0F3C0F3C0F3C0F3E1F1E3E1FFC0FFF
:10539000F00300000000000000000000FF3FFF3F9E
:1053A000FF3F0F001E001E003C0038007800F00098
:1053B000F000E001E001C003C0038007800F800F10
:1053C000000F001F001F0000000000000000000090
:1053D000F807FC0F3E1F1E1E1E3E1E3E1E1E3C1FDB
:1053E000F80FF007F80FFC1E3E3E1F3C1F7C0F7CA1
:1053F0000F7C1F3C3E3FFC1FF00700000000000038
:1054000000000000F007F80F7C1E3E3C1E3C1F7C95
:105410001F7C1F7C1F7C1F3C3F3EFF1FEF071F00B0
:105420001E001E003E003C00F838F03FE01F000068
:10543000000000000000000000000000000000006C
:1054400000000000E003E003E003E00300000000D0
:1054500000000000000000000000E003E003E003A3
:10546000E003000000000000000000000000000059
:105470000000000000000000E003E003E003E003A0
:105480000000000000000000000000000000E00339
:10549000E003E003E003E001E001E001C00380037A
:1054A00000000000000000000000000003000F00EA
:1054B0003F00FC00F003C00F003F00FE003FC00FA4
:1054C000F003FC003F000F0003000000000000009C
:1054D00000000000000000000000000000000000CC
:1054E0000000000000000000FFFFFFFF00000000C0
:1054F0000000FFFFFFFF00000000000000000000B0
:10550000000000000000000000000000000000009B
:105510000000000000E000F8007E801FE007F801B6
:105520007E001F007E00F801E007801F007E00F86B
:1055300000E000000000000000000000F01FFC3F41
:105540003E381F381F381E001E003C007800F00057
:10555000E001C003C003C007C00700000000000056
:10556000C007C007C00700000000000000000000E6
:10557000F803FE0F1E1F0F3E7F3CFF78EF79C773C5
:10558000C7F38FF38FF38FF39FF39FF3FF73FF7BCB
:10559000F779003C1C1FFC0FF8030000000000001E
:1055A00000000000000000000000E003E003F0073E
:1055B000F007F007780F780F7C0E3C1E3C1E3E3C37
:1055C000FE3FFF3F1F780F780FF007F007F0000055
:1055D0000000000000000000000000000000F83F94
:1055E000FC3F3E3C1E3C1E3C1E3C3E3C7C3CF03F97
:1055F000F83F7E3C1F3C1F3C0F3C0F3C1F3CFE3FD6
:10560000F83F000000000000000000000000000063
:105610000000FF01FF07871F003E003C007C007870
:105620000078007800780078007C007C003E003F25
:10563000831FFF07FF0100000000000000000000C2
:10564000000000000000F07FFC7F7E781F781F784C
:105650000F780F780F780F780F780F780F780F7812
:105660001F781E787E78F87FE07F00000000000041
:1056700000000000000000000000FF3FFF3F003E70
:10568000003E003E003E003E003EFE3FFE3F003E2C
:10569000003E003E003E003E003EFF3FFF3F000058
:1056A0000000000000000000000000000000FF1FDC
:1056B000FF1F001E001E001E001E001E001EFF1FFA
:1056C000FF1F001E001E001E001E001E001E001EEA
:1056D000001E0000000000000000000000000000AC
:1056E0000000FE03FF0F871F003E007C007C007857
:1056F00000F800F87FF87FF80F780F7C0F7C0F3EE2
:105700008F1FFF0FFE0300000000000000000000DC
:105710000000000000001F7C1F7C1F7C1F7C1F7C82
:105720001F7C1F7C1F7CFF7FFF7F1F7C1F7C1F7CDB
:105730001F7C1F7C1F7C1F7C1F7C00000000000062
:1057400000000000000000000000FF3FFF3FE003FA
:10575000E003E003E003E003E003E003E003E00331
:10576000E003E003E003E003E003FF3FFF3F00004E
:105770000000000000000000000000000000FC1F0E
:10578000FC1F7C007C007C007C007C007C007C009A
:105790007C007C007C007C0078007800F838F03FCA
:1057A000C03F0000000000000000000000000000FA
:1057B00000001F3C1E3C3C3C783CF03CE03DE03FA0
:1057C000C03F803FC03FE03FF03DF03C783C7C3C38
:1057D0003E3C1F3C0F3C00000000000000000000A9
:1057E000000000000000003E003E003E003E003E83
:1057F000003E003E003E003E003E003E003E003EB9
:10580000003E003E003EFF3FFF3F00000000000062
:10581000000000000000000000001FF81FFC1FFC3B
:105820003FFE3FFE3FFE7FFF77FF77FFF7F7E7F78B
:10583000E7F3E7F3C7F307F007F007F007F000001E
:1058400000000000000000000000000000000F7CCD
:105850000F7C0F7E0F7F0F7F8F7F8F7FCF7FEF7B40
:10586000EF79FF79FF78FF787F783F783F781F786E
:105870001F78000000000000000000000000000091
:105880000000F007FC1F3E3E1F7C0F780F780FF8DA
:105890000FF80FF80FF80FF80FF80F780F781F7C3C
:1058A0003E3EFC1FF007000000000000000000006A
:1058B000000000000000FC3FFF3F1F3E0F3E0F3E78
:1058C0000F3E0F3E1F3E3F3EFC3FF03F003E003E7E
:1058D000003E003E003E003E003E00000000000092
:1058E00000000000000000000000F007FC1F3E3E2A
:1058F0001F7C0F780F780FF80FF80FF80FF80FF8DC
:105900000FF80F780F781F7C3E3EFC1FF8077C00D5
:105910003F000F0003000000000000000000F03F07
:10592000FC3F7E3C3E3C1E3C1E3C3E3C3C3CFC3C2A
:10593000F03FE03FF03DF83C7C3C3E3C1E3C1F3CD1
:105940000F3C00000000000000000000000000000C
:105950000000FC07FE1F0E3E003C003C003C003EE9
:10596000C01FF80FFE037F001F000F000F001F2055
:105970003E3CFC3FF01F0000000000000000000063
:10598000000000000000FFFFFFFFE003E003E00372
:10599000E003E003E003E003E003E003E003E003EF
:1059A000E003E003E003E003E00300000000000088
:1059B000000000000000000000000F7C0F7C0F7C46
:1059C0000F7C0F7C0F7C0F7C0F7C0F7C0F7C0F7C7F
:1059D0000F7C0F7C1E3C1E3C3E3EFC1FF00700006F
:1059E000000000000000000000000000000007F0C0
:1059F00007F007F80F780F7C1E3C1E3C1E3E3C1E35
:105A00003C1F781F780FF80FF007F007F007E0034E
:105A1000E0030000000000000000000000000000A3
:105A2000000003E003F003F007F0E7F3E7F3E7F328
:105A3000E773F77BF77FFF7F7F7F7F7F7E7F7E3FF0
:105A40003E3E3E3E3E3E00000000000000000000E2
:105A500000000000000007F80F7C1E3E3E3E3C1F89
:105A6000F80FF007E007E003E003F007F80F7C0F02
:105A70007C1E3E3C1F780F780FF0000000000000F5
:105A80000000000000000000000007F807780F7C0D
:105A90001E3C1E3E3C1F780FF80FF007E003E003AA
:105AA000E003E003E003E003E003E003E0030000C1
:105AB0000000000000000000000000000000FF7F68
:105AC000FF7F0F001F003E007C00F800F000E001A7
:105AD000E003C007800F000F001E003E007CFF7F28
